:020000020000FC
:1000000004E00EBF0FE50DBF0FD044272224F0E01F
:10001000EEE934D033D05591552329F0503299F080
:1000200018D007D0F6CFF3CF00270ABB0FEF07BBDE
:100030000895603839F0660F10F416D015D014D03A
:100040001DD0F7CF08951AD019D018D017D016D0D8
:10005000E0CFFF93EF935154F0E0E2EBE50FF21D98
:100060006491EF91FF91089546E9C79A2AE010D074
:10007000C7982AE00DD04A95C1F7089546E9C79878
:100080002AE006D0C7982AE003D04A95C1F7089520
:10009000022F1FE11A95F1F70A95D9F70895444107
:1000A000544F5254454B4E494B204C4142205457DB
:1000B0004F006088A8904028D0082078B048E0A081
:0C00C000F068D85010C030187098B8C814
:00000001FF
