:020000020000FC
:100000000C9406000C941E000C9444000FEF222464
:1000100002BB0FEF07BB0FEF0ABB04E00EBF0FE5FB
:100020000DBF0AE005BF00EC0BBFF0E0E0E6219257
:1000300021922192219278940C941C00FF93EF93CB
:100040000F930FB70F93BF93AF93F0E0E4E671E027
:100050002081270F243009F422272083F0E0E0E6F6
:10006000E20FF21D3081F0E0EEEDE30FF21D44915E
:1000700000E008BB2BBB48BBAF91BF910F910FBFF6
:100080000F91EF91FF911895FF93EF930F930FB797
:100090000F93BF93AF93B0E0A0E671E080E0F0E093
:1000A000EEEE9491E70FF21D870F2C91270F291781
:1000B00069F422272C93A70FB21D843091F7F0E04A
:1000C000E0E6A0E0870F21928430E1F72C93AF9116
:1000D000BF910F910FBF0F91EF91FF9118953F06C0
:1000E0005B4F666D7D077F6F777C395E79710A069D
:0200F0000A06FE
:00000001FF
