:020000020000FC
:100000000C9404000C94280004E00EBF0FE50DBF13
:100010000E94BF000E94CB000E9457000E94FC007B
:100020000E94A50026E90E940E0100916000109137
:100030006200011759F400916100109163000117EB
:1000400029F40EE10E9404010E94CB000C940C00E4
:10005000FF93EF93BF93AF930F930FB70F930F934C
:100060001F932F93F0E0E5E60091640010E018BBC9
:100070000395053009F400E00093640010E0E00F00
:10008000F11F102F110F110F008108BB1BBB009136
:100090006A00039500936A002F911F910F910F91B1
:1000A0000FBF0F91AF91BF91EF91FF9118950F93F3
:1000B0000FB70F9300E40E949800133029F40091C9
:1000C00060000A9500936000103029F400916000F0
:1000D00003950093600001E80E949800103029F415
:1000E000009161000A9500936100133029F400919A
:1000F00061000395009361000E9482000F910FBF81
:100100000F9108950091600017E00E949100009304
:1001100060000091610015E00E9491000093610071
:10012000089500601AF0011711F402500395089524
:1001300007B900E8076006B906B1006406B906B160
:1001400006FDFDCF04B115B10895FF27E0E60E943A
:10015000AE00FF27E2E60E94AE00089511910E94D2
:10016000B8001081E5E6E10F1081102B108308958F
:1001700001E01A951AF0000F0C94B90008950FEFE2
:1001800002BB0FEF07BB0CEF0ABB0AE005BF00E4A0
:100190000BBF7894089500E00093600002E00093A4
:1001A00061000F920F920E94E0000F911F91F0E00A
:1001B000E2E60083F0E0E3E610830E94FC0008958D
:1001C00000240EB7F02F0DB7E02F00916A00102F1A
:1001D00007701E70169504300CF0045014300CF0AB
:1001E000145022E0020F23E0E20FF01D008321E013
:1001F000E20FF01D10830895F0E0E5E600E015E061
:1002000001931A95E9F708954EE1C79A21E006D0C7
:10021000C79821E003D04A95C1F70895022F1FEF38
:0A0220001A95F1F70A95D9F7089531
:00000001FF
